{
  "contractName": "Verificador",
  "abi": [
    {
      "inputs": [],
      "stateMutability": "nonpayable",
      "type": "constructor"
    },
    {
      "anonymous": false,
      "inputs": [
        {
          "indexed": false,
          "internalType": "uint256",
          "name": "",
          "type": "uint256"
        }
      ],
      "name": "event_createStudent",
      "type": "event"
    },
    {
      "anonymous": false,
      "inputs": [
        {
          "indexed": false,
          "internalType": "bool",
          "name": "",
          "type": "bool"
        }
      ],
      "name": "evento_StudentExist",
      "type": "event"
    },
    {
      "inputs": [
        {
          "internalType": "uint256",
          "name": "",
          "type": "uint256"
        }
      ],
      "name": "TodoslosArchivos",
      "outputs": [
        {
          "internalType": "string",
          "name": "",
          "type": "string"
        }
      ],
      "stateMutability": "view",
      "type": "function"
    },
    {
      "inputs": [],
      "name": "users",
      "outputs": [
        {
          "internalType": "address",
          "name": "",
          "type": "address"
        }
      ],
      "stateMutability": "view",
      "type": "function"
    },
    {
      "inputs": [
        {
          "internalType": "uint256",
          "name": "_dni",
          "type": "uint256"
        },
        {
          "internalType": "string",
          "name": "_fullname",
          "type": "string"
        },
        {
          "internalType": "string",
          "name": "_grate",
          "type": "string"
        }
      ],
      "name": "createStudent",
      "outputs": [],
      "stateMutability": "nonpayable",
      "type": "function"
    },
    {
      "inputs": [
        {
          "internalType": "string",
          "name": "_hashArchivo",
          "type": "string"
        },
        {
          "internalType": "uint256",
          "name": "_dni",
          "type": "uint256"
        }
      ],
      "name": "createArchivo",
      "outputs": [
        {
          "internalType": "bool",
          "name": "",
          "type": "bool"
        }
      ],
      "stateMutability": "payable",
      "type": "function"
    },
    {
      "inputs": [
        {
          "internalType": "uint256",
          "name": "_dni",
          "type": "uint256"
        }
      ],
      "name": "StudentExist",
      "outputs": [
        {
          "internalType": "bool",
          "name": "",
          "type": "bool"
        }
      ],
      "stateMutability": "view",
      "type": "function"
    },
    {
      "inputs": [
        {
          "internalType": "string",
          "name": "_hashArchivo",
          "type": "string"
        }
      ],
      "name": "DocumentoName",
      "outputs": [
        {
          "internalType": "uint256",
          "name": "",
          "type": "uint256"
        }
      ],
      "stateMutability": "view",
      "type": "function"
    },
    {
      "inputs": [
        {
          "internalType": "uint256",
          "name": "_dni",
          "type": "uint256"
        }
      ],
      "name": "ConsultarDocumentos",
      "outputs": [
        {
          "internalType": "string[]",
          "name": "",
          "type": "string[]"
        }
      ],
      "stateMutability": "view",
      "type": "function"
    }
  ],
  "bytecode": "0x6080604052600060015534801561001557600080fd5b50336000806101000a81548173ffffffffffffffffffffffffffffffffffffffff021916908373ffffffffffffffffffffffffffffffffffffffff160217905550611005806100656000396000f3fe6080604052600436106100705760003560e01c80638308caf71161004e5780638308caf7146101185780638555a05814610155578063eed2a98c14610185578063f2020275146101c257610070565b80630d96dd961461007557806337380e36146100b257806349f15e9e146100ef575b600080fd5b34801561008157600080fd5b5061009c60048036038101906100979190610a1d565b6101ed565b6040516100a99190610c82565b60405180910390f35b3480156100be57600080fd5b506100d960048036038101906100d49190610a1d565b610253565b6040516100e69190610c60565b60405180910390f35b3480156100fb57600080fd5b5061011660048036038101906101119190610a4a565b610465565b005b34801561012457600080fd5b5061013f600480360381019061013a9190610978565b6105e0565b60405161014c9190610cbf565b60405180910390f35b61016f600480360381019061016a91906109c1565b61060b565b60405161017c9190610c82565b60405180910390f35b34801561019157600080fd5b506101ac60048036038101906101a79190610a1d565b6106f3565b6040516101b99190610c9d565b60405180910390f35b3480156101ce57600080fd5b506101d761079f565b6040516101e49190610c45565b60405180910390f35b6000806000905060005b60028054905081101561024957836002828154811061021957610218610f35565b5b906000526020600020906004020160010154141561023657600191505b808061024190610e8e565b9150506101f7565b5080915050919050565b6060600060038054905067ffffffffffffffff81111561027657610275610f64565b5b6040519080825280602002602001820160405280156102a957816020015b60608152602001906001900390816102945790505b5090506000805b60038054905081101561045a578461036d600383815481106102d5576102d4610f35565b5b9060005260206000200180546102ea90610e2b565b80601f016020809104026020016040519081016040528092919081815260200182805461031690610e2b565b80156103635780601f1061033857610100808354040283529160200191610363565b820191906000526020600020905b81548152906001019060200180831161034657829003601f168201915b50505050506105e0565b1415610447576003818154811061038757610386610f35565b5b90600052602060002001805461039c90610e2b565b80601f01602080910402602001604051908101604052809291908181526020018280546103c890610e2b565b80156104155780601f106103ea57610100808354040283529160200191610415565b820191906000526020600020905b8154815290600101906020018083116103f857829003601f168201915b505050505083838151811061042d5761042c610f35565b5b6020026020010181905250818061044390610e8e565b9250505b808061045290610e8e565b9150506102b0565b508192505050919050565b600260405180608001604052806001548152602001858152602001848152602001838152509080600181540180825580915050600190039060005260206000209060040201600090919091909150600082015181600001556020820151816001015560408201518160020190805190602001906104e39291906107c3565b5060608201518160030190805190602001906105009291906107c3565b505050604051806080016040528060015481526020018481526020018381526020018281525060046000858152602001908152602001600020600082015181600001556020820151816001015560408201518160020190805190602001906105699291906107c3565b5060608201518160030190805190602001906105869291906107c3565b509050506001600081548092919061059d90610e8e565b91905055507f547b1506ca79ff1db59dd7f53e8f7ca96b7f86051c7f180b5b74ce50e14a42776001546040516105d39190610cbf565b60405180910390a1505050565b60006005826040516105f29190610c2e565b9081526020016040518091039020600101549050919050565b6000806000905061061b836101ed565b156106e95760038490806001815401808255809150506001900390600052602060002001600090919091909150908051906020019061065b9291906107c3565b506004600084815260200190815260200160002060058560405161067f9190610c2e565b9081526020016040518091039020600082015481600001556001820154816001015560028201816002019080546106b590610e2b565b6106c0929190610849565b5060038201816003019080546106d590610e2b565b6106e0929190610849565b50905050600190505b8091505092915050565b6003818154811061070357600080fd5b90600052602060002001600091509050805461071e90610e2b565b80601f016020809104026020016040519081016040528092919081815260200182805461074a90610e2b565b80156107975780601f1061076c57610100808354040283529160200191610797565b820191906000526020600020905b81548152906001019060200180831161077a57829003601f168201915b505050505081565b60008054906101000a900473ffffffffffffffffffffffffffffffffffffffff1681565b8280546107cf90610e2b565b90600052602060002090601f0160209004810192826107f15760008555610838565b82601f1061080a57805160ff1916838001178555610838565b82800160010185558215610838579182015b8281111561083757825182559160200191906001019061081c565b5b50905061084591906108d6565b5090565b82805461085590610e2b565b90600052602060002090601f01602090048101928261087757600085556108c5565b82601f1061088857805485556108c5565b828001600101855582156108c557600052602060002091601f016020900482015b828111156108c45782548255916001019190600101906108a9565b5b5090506108d291906108d6565b5090565b5b808211156108ef5760008160009055506001016108d7565b5090565b600061090661090184610cff565b610cda565b90508281526020810184848401111561092257610921610f98565b5b61092d848285610de9565b509392505050565b600082601f83011261094a57610949610f93565b5b813561095a8482602086016108f3565b91505092915050565b60008135905061097281610fb8565b92915050565b60006020828403121561098e5761098d610fa2565b5b600082013567ffffffffffffffff8111156109ac576109ab610f9d565b5b6109b884828501610935565b91505092915050565b600080604083850312156109d8576109d7610fa2565b5b600083013567ffffffffffffffff8111156109f6576109f5610f9d565b5b610a0285828601610935565b9250506020610a1385828601610963565b9150509250929050565b600060208284031215610a3357610a32610fa2565b5b6000610a4184828501610963565b91505092915050565b600080600060608486031215610a6357610a62610fa2565b5b6000610a7186828701610963565b935050602084013567ffffffffffffffff811115610a9257610a91610f9d565b5b610a9e86828701610935565b925050604084013567ffffffffffffffff811115610abf57610abe610f9d565b5b610acb86828701610935565b9150509250925092565b6000610ae18383610b7c565b905092915050565b610af281610da1565b82525050565b6000610b0382610d40565b610b0d8185610d63565b935083602082028501610b1f85610d30565b8060005b85811015610b5b5784840389528151610b3c8582610ad5565b9450610b4783610d56565b925060208a01995050600181019050610b23565b50829750879550505050505092915050565b610b7681610db3565b82525050565b6000610b8782610d4b565b610b918185610d74565b9350610ba1818560208601610df8565b610baa81610fa7565b840191505092915050565b6000610bc082610d4b565b610bca8185610d85565b9350610bda818560208601610df8565b610be381610fa7565b840191505092915050565b6000610bf982610d4b565b610c038185610d96565b9350610c13818560208601610df8565b80840191505092915050565b610c2881610ddf565b82525050565b6000610c3a8284610bee565b915081905092915050565b6000602082019050610c5a6000830184610ae9565b92915050565b60006020820190508181036000830152610c7a8184610af8565b905092915050565b6000602082019050610c976000830184610b6d565b92915050565b60006020820190508181036000830152610cb78184610bb5565b905092915050565b6000602082019050610cd46000830184610c1f565b92915050565b6000610ce4610cf5565b9050610cf08282610e5d565b919050565b6000604051905090565b600067ffffffffffffffff821115610d1a57610d19610f64565b5b610d2382610fa7565b9050602081019050919050565b6000819050602082019050919050565b600081519050919050565b600081519050919050565b6000602082019050919050565b600082825260208201905092915050565b600082825260208201905092915050565b600082825260208201905092915050565b600081905092915050565b6000610dac82610dbf565b9050919050565b60008115159050919050565b600073ffffffffffffffffffffffffffffffffffffffff82169050919050565b6000819050919050565b82818337600083830152505050565b60005b83811015610e16578082015181840152602081019050610dfb565b83811115610e25576000848401525b50505050565b60006002820490506001821680610e4357607f821691505b60208210811415610e5757610e56610f06565b5b50919050565b610e6682610fa7565b810181811067ffffffffffffffff82111715610e8557610e84610f64565b5b80604052505050565b6000610e9982610ddf565b91507fffffffffffffffffffffffffffffffffffffffffffffffffffffffffffffffff821415610ecc57610ecb610ed7565b5b600182019050919050565b7f4e487b7100000000000000000000000000000000000000000000000000000000600052601160045260246000fd5b7f4e487b7100000000000000000000000000000000000000000000000000000000600052602260045260246000fd5b7f4e487b7100000000000000000000000000000000000000000000000000000000600052603260045260246000fd5b7f4e487b7100000000000000000000000000000000000000000000000000000000600052604160045260246000fd5b600080fd5b600080fd5b600080fd5b600080fd5b6000601f19601f8301169050919050565b610fc181610ddf565b8114610fcc57600080fd5b5056fea2646970667358221220f7ff0bcddfe5f06947fc8d1dd11b1fc2ed87c73a759ca6a53cab85db7586f52964736f6c63430008060033",
  "immutableReferences": {},
  "source": "//SPDX-License-Identifier:MIT\r\npragma experimental ABIEncoderV2;\r\npragma solidity >=0.5.0 <0.9.0;\r\n\r\n\r\ncontract Verificador{\r\n    \r\n    // Direccion del profesor\r\n    address public users;\r\n    \r\n    // Constructor \r\n    constructor ()  {\r\n        users = msg.sender;\r\n    }\r\n       \r\n    struct Student {\r\n        uint id;\r\n        uint dni;\r\n        string fullname;\r\n        string grate;\r\n    }\r\n    \r\n    struct Archivo{\r\n        string hash;\r\n    }\r\n    \r\n    //Todos los estudiantes \r\n    uint nextId =0;\r\n    \r\n    // array todos los estudiantes\r\n    Student[] Students;\r\n    \r\n    // Todos los TodoslosArchivos\r\n    string [] public TodoslosArchivos; \r\n    \r\n    \r\n    //dni devuelve un obj alumno\r\n    mapping (uint => Student) MappingAlumno;\r\n    \r\n    //Archivo -indice devuelve un dni\r\n    mapping(string=>Student) MappingDocumentos;\r\n    \r\n    event evento_StudentExist(bool); \r\n    event event_createStudent(uint);\r\n    \r\n   // default value 0, add public to see the value\r\n    \r\n    function createStudent(uint _dni, string memory _fullname, string memory _grate) public {\r\n        Students.push(Student(nextId,_dni, _fullname, _grate));\r\n        MappingAlumno[_dni]=Student(nextId,_dni, _fullname, _grate);\r\n        nextId++;\r\n        emit event_createStudent(nextId);\r\n    }\r\n    function createArchivo(string memory _hashArchivo, uint _dni) public payable returns(bool)  {\r\n        bool a =false;\r\n        if(StudentExist(_dni)){\r\n            TodoslosArchivos.push(_hashArchivo);\r\n            \r\n            MappingDocumentos[_hashArchivo]=MappingAlumno[_dni] ;\r\n             a= true;\r\n        }\r\n         return a;\r\n        \r\n    }\r\n    function StudentExist(uint _dni)public view returns (bool){\r\n        bool a =false;\r\n        \r\n        for(uint i = 0 ; i<Students.length ; i++){\r\n            if(Students[i].dni == _dni ){\r\n                a= true;\r\n            }\r\n        }\r\n        return a;\r\n        \r\n    }\r\n    function DocumentoName(string memory _hashArchivo) public view returns(uint){\r\n       \r\n    \treturn MappingDocumentos[_hashArchivo].dni;\r\n    }\r\n\r\n//devolver documentos\r\nfunction ConsultarDocumentos(uint _dni)public view returns(string [] memory ){\r\n\t\tstring [] memory DocumentoxAlumno = new string[](TodoslosArchivos.length);\r\n\tuint contador=0;\r\n\tfor(uint i=0 ; i<TodoslosArchivos.length; i++){\r\n\t\tif(DocumentoName(TodoslosArchivos[i]) == _dni){\r\n\t\t\tDocumentoxAlumno[contador]= TodoslosArchivos[i];\r\n\t\t\tcontador++;\r\n\t\t}\r\n\t}\r\n\treturn DocumentoxAlumno;\r\n\t\r\n} \r\n\r\n}",
  "sourcePath": "C:\\Users\\Edgar\\Desktop\\Blockchain\\contracts\\Verificador.sol",
  "compiler": {
    "name": "solc",
    "version": "0.8.6+commit.11564f7e.Emscripten.clang"
  },
  "schemaVersion": "3.4.3",
  "updatedAt": "2021-10-05T00:39:44.484Z",
  "devdoc": {
    "kind": "dev",
    "methods": {},
    "version": 1
  },
  "userdoc": {
    "kind": "user",
    "methods": {},
    "version": 1
  }
}